:020000040800F2
:1000000068460020E9020008E30E00088B0E000895
:10001000E10E000843050008791000080000000008
:10002000000000000000000000000000290200089D
:10003000450500080000000085020008ED0E0008DC
:100040000303000803030008030300080303000878
:100050000303000803030008030300080303000868
:100060000303000803030008030300080303000858
:100070000303000803030008030300080303000848
:100080000303000803030008030300080303000838
:100090000303000803030008030300080303000828
:1000A0000303000803030008030300080303000818
:1000B0000303000803030008030300080303000808
:1000C00003030008030300080303000803030008F8
:1000D00003030008030300080303000803030008E8
:1000E00003030008030300080303000803030008D8
:1000F00003030008030300080303000803030008C8
:1001000003030008030300080303000803030008B7
:10011000030300080303000803030008A50F0008F9
:100120000303000803030008030300080303000897
:100130000303000803030008030300080303000887
:100140000303000803030008030300080303000877
:100150000303000803030008030300080303000867
:100160000303000803030008030300080303000857
:100170000303000803030008030300080000000055
:10018000030300080303000800F002F800F03CF845
:100190000AA090E8000C82448344AAF10107DA45E2
:1001A00001D100F031F8AFF2090EBAE80F0013F0F8
:1001B000010F18BFFB1A43F001031847F4190000A0
:1001C000141A0000103A24BF78C878C1FAD8520730
:1001D00024BF30C830C144BF04680C6070470000C1
:1001E0000023002400250026103A28BF78C1FBD840
:1001F000520728BF30C148BF0B6070471FB501F0E0
:10020000B1FC1FBD10B510BD00F061F91146FFF73C
:10021000F5FF00F042FF00F07FF903B4FFF7F2FFB3
:1002200003BC00F087F900002C4B19680868B0E89F
:10023000F04F80F30988BFF36F8F4FF0000080F319
:10024000118870470000000008480068006880F3CB
:1002500008884FF0000080F3148862B661B6BFF3DF
:100260004F8FBFF36F8F00DF00BF00BF08ED00E0CE
:10027000DFF80C00016841F470010160704700BFB5
:1002800088ED00E0EFF30980BFF36F8F134B1A681E
:100290001EF0100F08BF20ED108A20E9F04F10600B
:1002A00009B44FF0500080F31188BFF34F8FBFF3B4
:1002B0006F8F01F08FFA4FF0000080F3118809BCB6
:1002C00019680868B0E8F04F1EF0100F08BFB0ECD6
:1002D000108A80F30988BFF36F8F704714000020E5
:1002E000EFF3058070470000094880470948004740
:1002F000FEE7FEE7FEE7FEE7FEE7FEE7FEE7FEE7D6
:10030000FEE7FEE704480549054A064B7047000032
:10031000950F000889010008684000206846002009
:10032000684200206842002053EA020C00F0698015
:100330002DE9F04B4FF00006002B1FBFB3FA83F5F9
:1003400003FA05F424FA05F65E4012BF1643B2FA2A
:1003500082F502FA05F4C5F120051EBF22FA05FC5C
:1003600044EA0C04203556EA044C4FEA144418BF02
:10037000641C4FF000084FF00009904271EB030C31
:1003800039D3002919BFB1FA81F701FA07F6B0FA9B
:1003900080F700FA07F6C7F120071EBF20FA07FC16
:1003A00046EA0C062037B6FBF4FCA7EB0507103F26
:1003B00007F01F0BCBF120060CFA0BFB2CFA06F60C
:1003C00044BFB3460026202FA4BF5E464FF0000B6B
:1003D0005BEA060C08BF4FF0010B19EB0B09ABFBF6
:1003E000027C48EB0608C01B06FB02CC0BFB03CCCF
:1003F00071EB0C01C1E70B46024641464846BDE899
:10040000F08B13B54FF000004FF00001AFF3008008
:10041000BDE81C40704710B5203AC0F00B80B1E831
:100420001850203AA0E81850B1E81850A0E8185029
:10043000BFF4F5AF5FEA027C24BFB1E81850A0E832
:10044000185044BF18C918C0BDE810405FEA827C4C
:1004500024BF51F8043B40F8043B08BF7047D20763
:1004600028BF31F8023B48BF11F8012B28BF20F804
:10047000023B48BF00F8012B70474FF0000200B567
:10048000134694469646203922BFA0E80C50A0E8B7
:100490000C50B1F12001BFF4F7AF090728BFA0E865
:1004A0000C5048BF0CC05DF804EB890028BF40F831
:1004B000042B08BF704748BF20F8022B11F0804F73
:1004C00018BF00F8012B704770477047704775469A
:1004D00000F02CF8AE4605006946534620F00700B0
:1004E000854618B020B5FFF70DFFBDE820404FF05E
:1004F00000064FF000074FF000084FF0000B21F00E
:100500000701AC46ACE8C009ACE8C009ACE8C009DA
:10051000ACE8C0098D46704710B50446AFF30080C3
:100520002046BDE81040FFF778BE00000048704745
:100530000840002001491820ABBEFEE7260002005B
:100540007047FEE770470000014880687047000070
:1005500004000020024881680278114481607047DD
:10056000040000200B4810B5016841F400710160DF
:10057000016841F480610160016841F480710160AB
:10058000032000F08DF80F2000F006F800F03EF890
:10059000002010BD003C024010B5014688B000228A
:1005A000372000F05DF8372000F04CF813480024A5
:1005B000016841F020010160006805A900F02000F9
:1005C0000690684600F018F900F036F90C490D4A1B
:1005D000B0FBF1F10C48491E026040F2E732C0E97D
:1005E0000324C0E9011400F021FB10B1012008B080
:1005F00010BD054800F048FBF9E700004038024014
:1006000040420F0000140040D00200200C4882B08D
:10061000016841F480410160006800F4804000906E
:100620000748001F016841F0805101600068002206
:1006300000F0805000900F21901E02B000F010B822
:1006400044380240002809DB00F01F0201219140DC
:100650004009800000F1E020C0F800117047000060
:10066000F0B40E4B1B680C46C3F30223C3F107051D
:10067000042D00D90425191D072901D2002300E00B
:10068000DB1E012606FA05F1491E214099409E40D5
:10069000761E16403143F0BC00F0EFBC0CED00E0DC
:1006A000064900F0070208684FF6FF03184040EAC9
:1006B0000220034A10430860704700000CED00E080
:1006C0000000FA052DE9F0470E46050065D0DFF879
:1006D0001481D8F80000F7B200F00700B04207D24A
:1006E00088F80070D8F8000000F00700B04254D13C
:1006F00028683D4C810712D5400703D5206840F497
:10070000E05020602878000703D5206840F460405E
:1007100020602068A96820F0F00008432060287855
:10072000C0072DD0304968680839012812D0022846
:1007300013D0032811D00968890700292DDA216810
:1007400021F0030101432160FFF7FEFE814641F2E3
:10075000883A0EE009688903EFE709688901ECE748
:10076000FFF7F2FEA0EB0901514502D90320BDE8D5
:10077000F0872068696800F00C00B0EB810FEFD1C2
:10078000D8F80010404601F00701B14207D90770C0
:10079000006800F00700B04201D00120E7E72878A8
:1007A000400705D52068E96820F4E0500843206040
:1007B0002878000706D52068296920F4604040EABF
:1007C000C100206000F048F82168084AC1F3031115
:1007D000515CC8400649086006480068FFF7DCFE27
:1007E0000020C4E7003C0240083802408C1B00088F
:1007F00010000020080000200F2202600C4A13683D
:1008000003F003034360136803F0F003836013688D
:1008100003F4E053C36012684FF4E05303EAD202DA
:1008200002610448006800F007000860704700009B
:1008300008380240003C0240044805490068096845
:10084000044AC1F38221515CC84070471000002067
:10085000083802409C1B0008154810B5006810F0CD
:100860000C02144813D01449042A0FD0082A0ED1C0
:100870000F4C241F2268236802F03F025B0207D559
:100880002068C0F38810A0FB010106E0084610BDF7
:100890002168C1F38811A1FB00010023FFF744FD8B
:1008A0002168C1F30141491C4900B0FBF1F010BDC2
:1008B000083802400024F40040787D012DE9F84F0B
:1008C00004006ED02078DFF84C93C007A9F104052E
:1008D0004AD009F104000168C1F38101012908D05F
:1008E0000068C0F3810002280AD1D9F80000400254
:1008F00006D52868800337D560680028E1D033E04A
:100900006068B0F5803F10D0B0F5A02F286810D0F7
:1009100020F480302860286820F4802028606068F7
:10092000A8B1FFF711FE06460DE0286840F48030BC
:10093000F4E740F480202860F7E700BFFFF704FEEB
:10094000801B642873D828688003F7D50CE0FFF774
:10095000FBFD064605E000BFFFF7F6FD801B64289F
:10096000F0D828688003F7D42078DFF8AC828007BD
:100970004FF0000A3ED5A748001D016811F00C0F8A
:1009800008D00068C0F3810002280BD1D9F800001C
:10099000400207D42868800716D5E068012800D1F6
:1009A00012E033E1E068B8B10120C8F80000FFF7B9
:1009B000CBFD064605E000BFFFF7C6FD801B022801
:1009C000C0D828688007F7D52868216920F0F8008A
:1009D00040EAC10028600DE0C8F800A0FFF7B4FDB0
:1009E000064604E0FFF7B0FD801B02281FD82868E8
:1009F0008007F7D42078000722D5864F87486169A1
:100A0000703771B101210160FFF79EFD064604E0D9
:100A1000FFF79AFD801B022809D838688007F7D5B0
:100A20000EE0C0F800A0FFF78FFD064605E082E06B
:100A3000FFF78AFD801B02287DD838688007F7D42D
:100A40002078400768D5DFF8CCB100270BF13C0BCC
:100A5000DBF80000C0000BD4DBF8001041F080513F
:100A6000CBF80010DBF80000012700F08050009068
:100A70006B4E3068C00510D4306840F48070306030
:100A8000FFF762FD009005E0FFF75EFD0099401A58
:100A9000022850D83068C005F6D55E4EA0686C3686
:100AA00001280FD00528306810D020F001003060F8
:100AB000306820F004003060A068B8B1FFF744FD52
:100AC00000900FE0306840F00100F4E740F00400CF
:100AD0003060F7E7FFF738FD0099411A41F288309E
:100AE000814266D830688007F4D50EE0FFF72CFD10
:100AF000009007E0FFF728FD0099411A41F2883085
:100B0000814256D830688007F4D42FB1DBF800104A
:100B100021F08051CBF80010A069C8B33D49091DF0
:100B20000968C1F3810102294AD00228504607D042
:100B3000C8F8600000E03CE0FFF706FD04463BE03B
:100B40004746C8F86000FFF7FFFC064605E000BF17
:100B5000FFF7FAFC801B02282BD828688001F7D405
:100B6000D4E907010843A16A2E4A490802EB014172
:100B7000626A41EA8211084394F82C1040EA01614C
:100B8000C9F8001001203866FFF7DEFC044606E0D5
:100B90003EE000BFFFF7D8FC001B022809D82868F8
:100BA0008001F7D534E000BFFFF7CEFC001B022820
:100BB00002D90320BDE8F88F28688001F4D427E02B
:100BC0000128F7D0D9F80000E26900F480019142D1
:100BD0001CD1226A00F03F01914217D147F6C07143
:100BE000626A0140B1EB821F10D1A26A4FF0FF335D
:100BF00000F4403103EB5202B1EB024F06D194F8FE
:100C00002C1000F07060B0EB016F01D00120D1E733
:100C10000020CFE70438024000004742800E4742E0
:100C2000007000400000FFFF7047704710B50400DF
:100C300003D094F83D0010B107E0012010BD002062
:100C400084F83C00204600F01EF8022084F83D00A5
:100C5000211D206800F0ACF9012084F8460084F8DA
:100C60003E0084F83F0084F8400084F8410084F896
:100C7000420084F8430084F8440084F8450084F876
:100C80003D00002010BD704790F83D10012901D0B3
:100C900001207047022180F83D100168CA6842F0C7
:100CA0000102CA6000681149884214D0B0F1804F37
:100CB00011D00F4988420ED00E4988420BD00E4900
:100CC000884208D00D49884205D00D49884202D09B
:100CD0000C49884204D1816801F00701062903D03C
:100CE000016841F0010101600020704700000140EF
:100CF0000004004000080040000C004000040140D7
:100D00000040014000180040704770B5044600687C
:100D100001694FF00005C943890715D4C168C9436B
:100D2000890711D4E91E01610120207720688069BC
:100D30008007204602D0FFF7E7FF04E000F098F8B4
:100D4000204600F096F8257720680169C9434907D5
:100D500017D4C168C943490713D46FF00401016176
:100D6000022020772068806910F4407F204602D05E
:100D7000FFF7CAFF04E000F07BF8204600F079F8A6
:100D8000257720680169C943090716D4C168C9439A
:100D9000090712D46FF00801016104202077206850
:100DA000C0698007204602D0FFF7AEFF04E000F0E4
:100DB0005FF8204600F05DF8257720680169C94397
:100DC000C90617D4C168C943C90613D46FF010010E
:100DD0000161082020772068C06910F4407F204618
:100DE00002D0FFF791FF04E000F042F8204600F047
:100DF00040F8257720680169C943C90708D1C1684F
:100E0000C943C90704D1891E0161204600F032F8A8
:100E100020680169C943090609D4C168C9430906A4
:100E200005D46FF0800101612046FFF7FDFE2068C8
:100E30000169C943490609D4C168C943490605D4B3
:100E40006FF040010161204600F01EF82068016942
:100E5000C94389060BD4C168C943890607D46FF01A
:100E6000200101612046BDE87040FFF7DEBE70BD85
:100E70007047704700680349884201D1FFF76ABB99
:100E800070470000001400407047FEE700B587B0CF
:100E90001C2206496846FFF7BEFA0021684600F0AA
:100EA00019F90349086007B000BD0000701B000875
:100EB00000000020094808B5016841F08001016088
:100EC000016801F080010091016841F001010160B9
:100ED000006800F00100009008BD000030380240BA
:100EE000FEE7FEE7012000F0E9F8FBE710B550202F
:100EF00080F31188BFF34F8FBFF36F8F00F06AFD4F
:100F000018B104494FF080500860002080F3118828
:100F100010BD000004ED00E010B592B0302168462D
:100F2000FFF7ABFA14210CA8FFF7A7FA1748002423
:100F3000016841F080510160006800F0805011901C
:100F40001348016841F4804101600068069400F490
:100F50008040119002200090012003901020049006
:100F60006846FFF7ABFC08B172B6FEE70F20CDE98B
:100F70000C040E940F9400210CA81094FFF7A2FB10
:100F8000002801D072B6FEE712B010BD4038024012
:100F9000007000400248016841F470010160704730
:100FA00088ED00E00148FFF7B0BE0000D00200204D
:100FB000F0B50268254C264D264E274F274B4FF0A3
:100FC000804CA04209D0604507D0A84205D0B0426D
:100FD00003D0B84201D0984204D122F0700E4A6882
:100FE00042EA0E02A0421BD0604519D0A84217D099
:100FF000B04215D0B84213D0984211D0184DA84233
:101000000ED0184DA8420BD0174DA84208D0174D4E
:10101000A84205D0164DA84202D0164DA84203D1D1
:1010200022F44075CA682A434D6922F080022A439F
:1010300002608A68C2620A688262A04201D0984255
:1010400001D10969016301214161F0BD0000014046
:101050000004004000080040000C00400004014073
:101060000040014000440140004801400018004099
:10107000001C004000200040FEE70907090E002880
:1010800004DB00F1E02080F80014704700F00F004E
:1010900000F1E02080F8141D7047FFF763FAFFF7B6
:1010A0003BFFFFF707FFFFF7F1FE00F00EF8FEE74A
:1010B00001460020842900D0C81C704710B500B933
:1010C000012000F023FB002010BD10B500F044FB10
:1010D000002010BD7FB50D4604464169B0F90800F7
:1010E00081B1A16971B1FFF7E3FFD4E905128DE881
:1010F0000700D4E900102B46226900F040FC039061
:1011000004B070BDFFF7D4FF03A9CDE90001208A28
:101110002B4682B2D4E9001000F004FC012801D073
:101120000020EDE70398EBE72DE9F041184C0F465E
:101130000546E6682068001D00F020FA38B92068EE
:1011400090F82C1001208840216981432161681C9E
:1011500007D137B12168BDE8F0410E48091D00F004
:1011600051BA20683544B5424560216805D2A06B6C
:10117000BDE8F041091D00F02DBA606B091D00F0BB
:1011800029FAA06A854200D2A562BDE8F08100007C
:1011900014000020F40300202DE9F041054600F082
:1011A0003DFA2E4CA068401CA06020682C4F10B166
:1011B000606940B32DE02560A068012829D1002690
:1011C00006EB860007EB800000F0F6F9761C072E90
:1011D000F6D323488C3000F0EFF92148A03000F01E
:1011E000EBF91F48B43000F0E7F91D48C83000F0B3
:1011F000E3F91B48DC3000F0DFF919488C306063FC
:101200001430A06305E02068E96AC06A884200D80B
:101210002560606A401C6062E96A0120226988409A
:101220001043206101EB810007EB8000291D00F0D5
:10123000E9F900F013FA606900280CD02068E96A27
:10124000C06A884207D207494FF080500860BFF358
:101250004F8FBFF36F8FBDE8F081000014000020B6
:101260001803002004ED00E010B5044690F851008A
:1012700058B101280CD002280FD0502080F31188DB
:10128000BFF34F8FBFF36F8FFEE7206B00F0FAF9CB
:101290002046BDE8104000F0F5B910BD10484FF4ED
:1012A0007051420706D0C01D0D4920F00700411AB9
:1012B000C1F570510B4A00230144C2E9000308390B
:1012C000183A21F0070111604B600B600B1AC0E95E
:1012D000001393604FF0004053605061704700006E
:1012E0000804002068000020144E154CA6F1C80721
:1012F0004FF08058DFF84C9012E000BF00F08EF9FC
:10130000F068C568281D00F039F9A068401EA0608B
:101310006068401E606000F0A1F92846FFF7A4FF56
:1013200060680028EAD138680128F9D9C9F8008036
:10133000BFF34F8FBFF36F8FF2E70000E003002091
:101340001400002004ED00E02DE9F0479A46DDE9A5
:10135000098481466FF00303206B03EB8202104483
:10136000089E20F00707780707D0502080F31188E7
:10137000BFF34F8FBFF36F8FFEE7002561B10020F1
:1013800023180A5C83F834200A5C12B1401C102830
:10139000F6D384F8435001E084F83450072E00D38C
:1013A0000626E662C4E91165201D00F010F904F17B
:1013B000180000F00CF92461C6F107006462A06116
:1013C000E56484F8505052464946384600F0C0F86B
:1013D0002060B8F1000F01D0C8F80040BDE8F087E8
:1013E00030B5114900E011460A688242FBD34B68D0
:1013F0005C18844203D1406818444860084643683A
:101400001C18944209D1084C183C2468A24209D007
:1014100052681A4442600A6812680260814200D031
:10142000086030BD0460F9E7680000200648416BA1
:10143000096829B1416BC968C96849688162704708
:101440004FF0FF31FAE70000140000200848406820
:10145000401C4FF0500080F3118804D0BFF34F8F31
:10146000BFF36F8FFEE7BFF34F8FBFF36F8FFEE7C2
:10147000700000202DE9F0410546002700F0A2F998
:10148000324E306808B9FFF709FF706905424ED146
:10149000C5B3083568070ED005F00700C0F1080095
:1014A0000544680707D0502080F31188BFF34F8FA1
:1014B000BFF36F8FFEE72DB37068854237D823489E
:1014C000183001460C6801E020460C466168A942CC
:1014D00002D221680029F7D131688C4227D00768F1
:1014E0002168016060680837411B10290FD9601915
:1014F000420708D0502080F31188BFF34F8FBFF30D
:101500006F8FFEE713E041606560FFF769FF616878
:101510007068401A7060B268904200D2B060706922
:1015200001430020C4E90001F068401CF06000F0B5
:10153000B7FA780707D0502080F31188BFF34F8F98
:10154000BFF36F8FFEE73846BDE8F0815000002002
:1015500010B5031F4FF080741C601B1F21F00101A8
:101560001960191F044B0B6014390A60091F6FF0D2
:10157000020244380A6010BD4D140008D0E901325F
:1015800001699A60D0E901235A604A68824201D118
:1015900082684A60002202610868401E086008688C
:1015A00070470000034B036003F154000860802083
:1015B000106070477C00002000F108014FF0FF32FE
:1015C000C0E90112C1600161002101607047002182
:1015D0000161704730B50B685A1C02D000F1080257
:1015E00002E0026904E02246546825689D42FAD967
:1015F00053684B6099608A60516008610168491CBA
:10160000016030BD42684A6093688B60936859609E
:10161000916008610168491C01607047502080F3A7
:101620001188BFF34F8FBFF36F8F0A494868401C82
:10163000486001280CD10848006810F0FF0F07D05F
:10164000502080F31188BFF34F8FBFF36F8FFEE7F9
:10165000704700007000002004ED00E00849486871
:1016600028B1401E486001D180F311887047502096
:1016700080F31188BFF34F8FBFF36F8FFEE7000039
:101680007000002070B500282AD0164DA0F1080483
:1016900060686969084207D1502080F31188BFF360
:1016A0004F8FBFF36F8FFEE722683AB1502080F36F
:1016B0001188BFF34F8FBFF36F8FFEE788436060E1
:1016C00000F080F860686968084468602046FFF7A9
:1016D00087FE2869401C2861BDE8704000F0E0B931
:1016E00070BD0000500000204FF0E020002101619B
:1016F000816105494FF47A720968B1FBF2F1491E24
:1017000041610721016170471000002010B50200FF
:1017100014D00F48006B38B1502080F31188BFF30C
:101720004F8FBFF36F8FFEE700F04CF8002110469B
:10173000FFF7FAFC00F0B4F9002807D105494FF093
:1017400080500860BFF34F8FBFF36F8F10BD000054
:101750001400002004ED00E010B586B000240394CE
:1017600005AA04A903A80494FFF71CFFDDE90301FF
:101770000094CDE9011000230EA11048059A00F055
:10178000FEF80F490028C86211D0502080F311885C
:10179000BFF34F8FBFF36F8F4FF0FF308862012090
:1017A0004861CC6006B0BDE8104000F041B806B01A
:1017B00010BD000049444C4500000000E91200083B
:1017C000140000200248016B491C016370470000AF
:1017D000140000201448016B11B10121C161704750
:1017E0000021C1610169B1FA81F1C1F11F0101EB71
:1017F00081020E4951F822306BB101EB820101F1F7
:1018000008034A6852684A609A4201D152684A60A5
:10181000D16801607047502080F31188BFF34F8F6B
:10182000BFF36F8FFEE700001400002018030020B4
:101830001CB537480168374A914207D1502080F3E0
:101840001188BFF34F8FBFF36F8FFEE700683149F8
:10185000491E884207D1502080F31188BFF34F8F73
:10186000BFF36F8FFEE72C4908780190FF200870C6
:1018700008788DF800009DF800009DF8002000F029
:10188000F000904207D0502080F31188BFF34F8FB3
:10189000BFF36F8FFEE79DF80000204C00F0500072
:1018A00020700720A06005E09DF8002052008DF810
:1018B0000020401E9DF800201206F5D4A0600328E9
:1018C00007D0502080F31188BFF34F8FBFF36F8F85
:1018D000FEE74FF44070A060019808700C4820307B
:1018E000016841F470010160016841F070410160DC
:1018F000FFF7FAFE00206060FEF7BAFC08480168B6
:1019000041F040410160FEF79FFC00201CBD00003B
:1019100000ED00E071C20F4100E400E07000002023
:1019200034EF00E02DE9FF5F8346DDE90E8799463D
:1019300016468A469000FFF79DFD05001CD05420F6
:10194000FFF798FD040014D00020256384F85100AF
:10195000CDE90240CDE900874B4632465146584614
:10196000FFF7F2FC2046FFF717FC012004B0BDE8AA
:10197000F09F2846FFF786FE4FF0FF30F6E7F0B500
:1019800085B0DDE90B640A9DA6B1DCB15427009750
:101990002663022684F85160002604AFCDE9024692
:1019A000CDE90057FFF7D0FC2046FFF7F5FB049880
:1019B00005B0F0BD502080F31188BFF34F8FBFF307
:1019C0006F8FFEE7502080F31188BFF34F8FBFF376
:1019D0006F8FFEE72DE9F0412F4C0026206B28B1D8
:1019E000A069401CA0613046BDE8F081E5686D1C2F
:1019F000E56013D1606B006838B1502080F3118826
:101A0000BFF34F8FBFF36F8FFEE7606BA16B616316
:101A1000A063206A401C2062FFF708FDA06ADFF87F
:101A20007C80854209D3606B0068A0B1606BC068A0
:101A3000C7687868854211D2A0622068C06A00EB4E
:101A4000800158F82100012800D90126E06900280A
:101A5000C9D00126C7E74FF0FF30EDE7381DFFF78B
:101A60008DFDB86A18B107F11800FFF787FDF96A14
:101A70000120226988401043206101EB810108EBBD
:101A80008100391DFFF7BEFDF86A2168C96A8842E6
:101A9000C9D30126C7E70000140000201803002066
:101AA0002DE9F0472C4D00242746286B38B1FFF76D
:101AB000B5FD286B401E2863286B40B146E05020DE
:101AC00080F31188BFF34F8FBFF36F8FFEE7A968D4
:101AD000224E0120D1B3A6F1B40980463068E8B1A6
:101AE000F068C46804F11800FFF748FD201DFFF7F7
:101AF00045FDE06A2A6908FA00F11143296100EB0B
:101B0000800109EB8100211DFFF77CFDE06A296857
:101B1000C96A8842E2D3C5F81C80DFE70CB1FFF741
:101B200085FCAC6944B14646FFF754FF00B1EE6155
:101B3000641EF9D10020A861E86938B1084901277D
:101B400038070860BFF34F8FBFF36F8FFFF786FD35
:101B50003846BDE8F087000014000020CC030020C8
:101B600004ED00E04FF04070E1EE100A7047000015
:101B7000A41B0008E50E00080000000000000000A3
:101B800080000000000000000000000000000000D5
:101B9000000000000102030406070809000000001D
:101BA0000102030464656661756C745461736B00B3
:101BB000D01B0008000000207C000000C4010008C9
:101BC0004C1C00087C000020EC450000E0010008EF
:101BD00000000000010000001000000000000000F4
:101BE0000024F400000000000000000000000000DD
:101BF00000000000000000000000000000000000E5
:101C000000000000000000000000000000000000D4
:101C100000000000000000000000000000000000C4
:101C200000000000000000000000000000000000B4
:101C300000000000000000000000000000000000A4
:0C1C400000000000AAAAAAAA00000000F0
:040000050800018965
:00000001FF
