:020000040800F2
:10000000285C0020E9020008C7100008FF0F000864
:10001000C5100008CB050008A91200080000000068
:10002000000000000000000000000000290200089D
:10003000CD0500080000000085020008D11000086E
:100040000303000803030008030300080303000878
:100050000303000803030008030300080303000868
:100060000303000803030008030300080303000858
:100070000303000803030008030300080303000848
:100080000303000803030008030300080303000838
:100090000303000803030008030300080303000828
:1000A00003030008D5110008030300080303000838
:1000B0000303000803030008030300080303000808
:1000C00003030008030300080303000803030008F8
:1000D00003030008030300080303000803030008E8
:1000E00003030008030300080303000803030008D8
:1000F00003030008030300080303000803030008C8
:1001000003030008030300080303000803030008B7
:1001100003030008030300080303000803030008A7
:100120000303000803030008030300080303000897
:100130000303000803030008030300080303000887
:100140000303000803030008030300080303000877
:100150000303000803030008030300080303000867
:100160000303000803030008030300080303000857
:100170000303000803030008030300080000000055
:10018000030300080303000800F002F800F03CF845
:100190000AA090E8000C82448344AAF10107DA45E2
:1001A00001D100F031F8AFF2090EBAE80F0013F0F8
:1001B000010F18BFFB1A43F0010318471C28000069
:1001C0003C280000103A24BF78C878C1FAD85207FA
:1001D00024BF30C830C144BF04680C6070470000C1
:1001E0000023002400250026103A28BF78C1FBD840
:1001F000520728BF30C148BF0B6070471FB502F0DF
:10020000C5FB1FBD10B510BD00F0A6F91146FFF7E4
:10021000F5FF01F05AF800F0C4F903B4FFF7F2FF5C
:1002200003BC00F0CBF900002C4B19680868B0E85B
:10023000F04F80F30988BFF36F8F4FF0000080F319
:10024000118870470000000008480068006880F3CB
:1002500008884FF0000080F3148862B661B6BFF3DF
:100260004F8FBFF36F8F00DF00BF00BF08ED00E0CE
:10027000DFF80C00016841F470010160704700BFB5
:1002800088ED00E0EFF30980BFF36F8F134B1A681E
:100290001EF0100F08BF20ED108A20E9F04F10600B
:1002A00009B44FF0500080F31188BFF34F8FBFF3B4
:1002B0006F8F01F04FFE4FF0000080F3118809BCF2
:1002C00019680868B0E8F04F1EF0100F08BFB0ECD6
:1002D000108A80F30988BFF36F8F704714000020E5
:1002E000EFF3058070470000094880470948004740
:1002F000FEE7FEE7FEE7FEE7FEE7FEE7FEE7FEE7D6
:10030000FEE7FEE704480549054A064B7047000032
:10031000811100088901000828460020285C00207F
:10032000285600202856002053EA020C00F069806D
:100330002DE9F04B4FF00006002B1FBFB3FA83F5F9
:1003400003FA05F424FA05F65E4012BF1643B2FA2A
:1003500082F502FA05F4C5F120051EBF22FA05FC5C
:1003600044EA0C04203556EA044C4FEA144418BF02
:10037000641C4FF000084FF00009904271EB030C31
:1003800039D3002919BFB1FA81F701FA07F6B0FA9B
:1003900080F700FA07F6C7F120071EBF20FA07FC16
:1003A00046EA0C062037B6FBF4FCA7EB0507103F26
:1003B00007F01F0BCBF120060CFA0BFB2CFA06F60C
:1003C00044BFB3460026202FA4BF5E464FF0000B6B
:1003D0005BEA060C08BF4FF0010B19EB0B09ABFBF6
:1003E000027C48EB0608C01B06FB02CC0BFB03CCCF
:1003F00071EB0C01C1E70B46024641464846BDE899
:10040000F08B13B54FF000004FF00001AFF3008008
:10041000BDE81C407047032A40F2308010F0030C06
:1004200000F0158011F8013BBCF1020F624498BF47
:1004300011F801CB00F8013B38BF11F8013BA2F1E4
:10044000040298BF00F801CB38BF00F8013B11F05F
:10045000030300F02580083AC0F0088051F8043BFF
:10046000083A51F804CBA0E80810F5E7121D5CBF6C
:1004700051F8043B40F8043BAFF30080D20724BF9F
:1004800011F8013B11F801CB48BF11F8012B24BF33
:1004900000F8013B00F801CB48BF00F8012B704782
:1004A00010B5203AC0F00B80B1E81850203AA0E80F
:1004B0001850B1E81850A0E81850BFF4F5AF5FEA43
:1004C000027C24BFB1E81850A0E8185044BF18C9F6
:1004D00018C0BDE810405FEA827C24BF51F8043B9D
:1004E00040F8043B08BF7047D20728BF31F8023BF1
:1004F00048BF11F8012B28BF20F8023B48BF00F885
:10050000012B70474FF0000200B513469446964603
:10051000203922BFA0E80C50A0E80C50B1F1200116
:10052000BFF4F7AF090728BFA0E80C5048BF0CC0C4
:100530005DF804EB890028BF40F8042B08BF704722
:1005400048BF20F8022B11F0804F18BF00F8012B94
:100550007047704770477047754600F02BF8AE46FD
:1005600005006946534620F00700854618B020B5BF
:10057000FFF7C8FEBDE820404FF000064FF000072F
:100580004FF000084FF0000B21F00701AC46ACE83B
:10059000C009ACE8C009ACE8C009ACE8C0098D46A8
:1005A000704710B50446AFF300802046BDE8104008
:1005B000FFF733BE00487047C845002001491820A6
:1005C000ABBEFEE7260002007047FEE770477047AB
:1005D0002DE9F84FDFF87CB100224FF001084FF011
:1005E000030A4FF00F090BF1040E00BF0B6808FA65
:1005F00002F42340A3426ED14D68022D01D0122D8A
:100600000ED1D50800EB850CDCF820505607F70E0C
:1006100009FA07F6B5430E69BE402E43CCF82060B8
:10062000066855000F790AFA05FC07F0030726EA69
:100630000C06AF40374307604E68012E05D0022EEE
:1006400003D0112E01D0122E0ED18668CF6826EA73
:100650000C06AF40374387604668A6430C79C4F365
:100660000014944034434460C6688C6826EA0C0643
:10067000AC403443C4604C68E40065D5364C256812
:1006800045F480452560246822F0030504F4804485
:100690000094324C2E19D6F8084895072F0F09FA06
:1006A00007F5AC432E4DA84201D1002524E02D4D85
:1006B000A84201D101251FE02B4DA84201D10225FE
:1006C0001AE02A4DA84201D1032515E0284DA84281
:1006D00002D1042510E037E0264DA84201D10525BE
:1006E0000AE0254DA84201D1062505E0234DA84288
:1006F00001D1072500E00825BD402543C6F808586C
:10070000DBF800405D464E689C43F60300D51C4371
:100710002C60DEF8004075464E689C43B60300D559
:100720001C432C600B4D08352C684E689C43F60228
:1007300000D51C432C60074D0C352C684E689C433B
:10074000B60200D51C432C60521C102AFFF44EAF99
:10075000BDE8F88F003C01404438024000300140C1
:10076000000002400004024000080240000C024069
:10077000001002400014024000180240001C024019
:10078000014880687047000004000020024881682A
:100790000278114481607047040000200B4810B5B6
:1007A000016841F400710160016841F480610160F9
:1007B000016841F480710160032000F08DF8002091
:1007C00000F006F800F03EF8002010BD003C0240AA
:1007D00010B5014688B00022192000F05DF81920FC
:1007E00000F04CF813480024016841F40031016026
:1007F000006805A900F400300690684600F016F97C
:1008000000F034F90C494000B0FBF1F10C480B4A00
:10081000491E026040F2E732C0E90324C0E9011436
:1008200000F0EAFA10B1012008B010BD044800F051
:1008300013FBF9E74438024040420F0000440140F6
:10084000700700200C4882B0016841F480410160CB
:10085000006800F4804000900748001F016841F0E4
:10086000805101600068002200F0805000900F214C
:10087000901E02B000F010B844380240002809DB96
:1008800000F01F02012191404009800000F1E020AA
:10089000C0F8001170470000F0B40E4B1B680C4606
:1008A000C3F30223C3F10705042D00D90425191D44
:1008B000072901D2002300E0DB1E012606FA05F11C
:1008C000491E214099409E40761E16403143F0BC9F
:1008D00000F0EBBC0CED00E0064900F007020868F0
:1008E0004FF6FF03184040EA0220034A1043086015
:1008F000704700000CED00E00000FA052DE9F0471C
:100900000E46050065D0DFF81481D8F80000F7B274
:1009100000F00F00B04207D288F80070D8F800004D
:1009200000F00F00B04254D128683D4C810712D529
:10093000400703D5206840F4E05020602878000785
:1009400003D5206840F4604020602068A96820F04A
:10095000F000084320602878C0072DD0304968682F
:100960000839012812D0022813D0032811D00968B1
:10097000890700292DDA216821F003010143216054
:10098000FFF7FEFE814641F2883A0EE009688903CE
:10099000EFE709688901ECE7FFF7F2FEA0EB090138
:1009A000514502D90320BDE8F0872068696800F04E
:1009B0000C00B0EB810FEFD1D8F80010404601F0E9
:1009C0000F01B14207D90770006800F00F00B04274
:1009D00001D00120E7E72878400705D52068E968BD
:1009E00020F4E050084320602878000706D52068EE
:1009F000296920F4604040EAC100206000F046F818
:100A00002168084AC1F30311515CC84006490860D7
:100A10000020FFF7DDFE0020C5E70000003C02409B
:100A200008380240B4290008100000200F2202609C
:100A30000C4A136803F003034360136803F0F003E8
:100A40008360136803F4E053C36012684FF4E0530B
:100A500003EAD20202610448006800F00F00086057
:100A60007047000008380240003C02400448054935
:100A700000680968044AC1F34231515CC8407047BC
:100A80001000002008380240C4290008104810B5A2
:100A9000006810F00C010F4818D0042916D008295E
:100AA00014D10B4C241F216801F03F0221682168FA
:100AB0000023C1F38811A1FB0001FFF735FC216879
:100AC000C1F30141491C4900B0FBF1F010BD000029
:100AD000083802400024F4002DE9F84F050076D0D4
:100AE0002878DFF8F8B2BE4CC00749D0DBF8001018
:100AF0005846C1F38101012908D00068C0F3810084
:100B000002280AD1201D0068400206D52068800313
:100B100036D568680028E2D032E06868B0F5803FDA
:100B200010D0B0F5A02F206810D020F480302060C5
:100B3000206820F4802020606868A0B1FFF720FEC4
:100B400006460CE0206840F48030F4E740F4802052
:100B50002060F7E7FFF714FE801B642873D8206835
:100B60008003F7D50CE0FFF70BFE064605E000BF5B
:100B7000FFF706FE801B6428F0D820688003F7D4B6
:100B80002878DFF8608280074FF000093ED5DBF857
:100B90000010584611F00C0F09D00068C0F3810016
:100BA00002280BD18D48001F0068400206D420683F
:100BB000800715D5E868012809D111E0E868B8B1C7
:100BC0000120C8F80000FFF7DBFD064605E002E162
:100BD000FFF7D6FD801B0228C0D820688007F7D514
:100BE0002068296920F0F80040EAC10020600DE08B
:100BF000C8F80090FFF7C4FD064604E0FFF7C0FD0B
:100C0000801B02281FD820688007F7D428780007A7
:100C100022D5724E744869696C3671B10121016048
:100C2000FFF7AEFD074604E0FFF7AAFDC01B022850
:100C300009D830688007F7D50EE0C0F80090FFF7BC
:100C40009FFD074605E083E0FFF79AFDC01B0228E1
:100C50007ED830688007F7D42878400768D5DFF859
:100C60007CA100270AF1380ADAF80000C0000BD492
:100C7000DAF8001041F08051CAF80010DAF80000EC
:100C8000012700F080500090584E3068C00510D405
:100C9000306840F480703060FFF772FD009005E02E
:100CA000FFF76EFD0099401A022851D83068C00540
:100CB000F6D54A4EA868683601280FD00528306856
:100CC00010D020F001003060306820F00400306067
:100CD000A868B8B1FFF754FD00900FE0306840F00D
:100CE0000100F4E740F004003060F7E7FFF748FD4B
:100CF0000099411A41F28830814264D830688007F7
:100D0000F4D50EE0FFF73CFD009007E0FFF738FD5B
:100D10000099411A41F28830814254D830688007E6
:100D2000F4D42FB1DAF8001021F08051CAF8001085
:100D3000A869C0B3DBF80010C1F3810102294AD0D1
:100D40000228484607D0C8F86000FFF719FD00E008
:100D500039E005463AE04746C8F86000FFF710FD65
:100D6000064604E0FFF70CFD801B02282BD8206804
:100D70008001F7D4D5E907010843A96A1C4A49084C
:100D800002EB01416A6A41EA8211084395F82C108E
:100D900040EA01611148001F016001203866FFF739
:100DA000EFFC054605E014E0FFF7EAFC401B0228D3
:100DB00009D820688001F7D50BE000BFFFF7E0FC01
:100DC000401B022802D90320BDE8F88F206880016B
:100DD000F4D40020F8E70120F6E7000008380240CC
:100DE0000038024000004742800E47420070004039
:100DF0000000FFFF7047704710B5040003D094F85F
:100E00003D0010B107E0012010BD002084F83C0037
:100E1000204600F00DF8022084F83D00211D2068D6
:100E200000F0DEF9012084F83D00002010BD000034
:100E300008B500680649884208D10648016841F4AF
:100E400080710160006800F48070009008BD0000AF
:100E500000200040403802400168CA6842F00102A8
:100E6000CA600068816801F00701062903D00168A3
:100E700041F00101016000207047704770B50446E1
:100E8000006801694FF00005C943890715D4C1689E
:100E9000C943890711D4E91E016101202077206828
:100EA00080698007204602D0FFF7E7FF04E000F0EA
:100EB00098F8204600F096F8257720680169C94324
:100EC000490717D4C168C943490713D46FF0040117
:100ED0000161022020772068806910F4407F20465D
:100EE00002D0FFF7CAFF04E000F07BF8204600F0D4
:100EF00079F8257720680169C943090716D4C168C4
:100F0000C943090712D46FF008010161042020775A
:100F10002068C0698007204602D0FFF7AEFF04E0DA
:100F200000F05FF8204600F05DF825772068016941
:100F3000C943C90617D4C168C943C90613D46FF0A1
:100F400010010161082020772068C06910F4407FFB
:100F5000204602D0FFF791FF04E000F042F820465F
:100F600000F040F8257720680169C943C90708D116
:100F7000C168C943C90704D1891E0161204600F038
:100F800033F820680169C943090609D4C168C94317
:100F9000090605D46FF0800101612046FFF72AFFA2
:100FA00020680169C943490609D4C168C943490693
:100FB00005D46FF040010161204600F01FF8206861
:100FC0000169C94389060BD4C168C943890607D49E
:100FD0006FF0200101612046BDE87040FFF70BBFB4
:100FE00070BD70477047000000680349884201D116
:100FF000FFF7CCBB70470000004401407047FEE79C
:1010000000B587B01C2206496846FFF749FA00215F
:10101000684600F079F90349086007B000BD000098
:10102000982900080000002000B587B01421684608
:10103000FFF768FA13480021026842F0800202605C
:10104000026802F080020592026842F0010202602A
:10105000026802F001020592026842F00802026092
:10106000006800F00800059002200090CDE9010121
:10107000032003900920049069460348FFF7A8FA6B
:1010800007B000BD30380240000C02400C4810B5DB
:101090000A4901604FF45271416000214FF4FA6235
:1010A000C0E90212016180218161FFF7A5FE0028DD
:1010B00003D0BDE81040FFF78ABA10BD0020004001
:1010C00030070020FEE77047012000F011F9FBE730
:1010D00010B5502080F31188BFF34F8FBFF36F8F8F
:1010E00001F0A8FA18B104494FF0805008600020C0
:1010F00080F3118810BD000004ED00E030B593B01E
:1011000030216846FFF7FEF914210CA8FFF7FAF921
:1011100019480025016841F080510160006800F025
:10112000805011901548016841F4804101600068C9
:10113000022400F4804011900120009000040190EE
:101140008001CDE9064008200890A820CDE90904D7
:1011500004200B906846FFF7BFFC0CA90F2081E824
:1011600031004FF4A0500F90E002109005210CA820
:10117000FFF7C4FB13B030BD4038024000700040A0
:101180001048016841F4700101600F48016841F0A6
:10119000010101600C4A00210832116002680B4B0A
:1011A0001A400260031D0A4A1A60026822F4802273
:1011B000026005480C300160024958068039086019
:1011C0007047000088ED00E000380240FFFFF6FEA7
:1011D000103000240148FFF751BE000070070020C6
:1011E000F0B50268254C264D264E274F274B4FF071
:1011F000804CA04209D0604507D0A84205D0B0423B
:1012000003D0B84201D0984204D122F0700E4A684F
:1012100042EA0E02A0421BD0604519D0A84217D066
:10122000B04215D0B84213D0984211D0184DA84200
:101230000ED0184DA8420BD0174DA84208D0174D1C
:10124000A84205D0164DA84202D0164DA84203D19F
:1012500022F44075CA682A434D6922F080022A436D
:1012600002608A68C2620A688262A04201D0984223
:1012700001D10969016301214161F0BD0000014014
:101280000004004000080040000C00400004014041
:101290000040014000440140004801400018004067
:1012A000001C004000200040FEE70907090E00284E
:1012B00004DB00F1E02080F80014704700F00F001C
:1012C00000F1E02080F8141D7047FFF767FAFFF780
:1012D00015FFFFF7A9FEFFF7D9FEFFF791FE00F01B
:1012E0000EF8FEE701460020842900D0C81C704794
:1012F00010B500B9012000F079FD002010BD10B537
:1013000000F0DCFD002010BD7FB50D4604464169AC
:10131000B0F9080081B1A16971B1FFF7E3FFD4E929
:1013200005128DE80700D4E900102B46226901F070
:1013300042F9039004B070BDFFF7D4FF03A9CDE9D3
:101340000001208A2B4682B2D4E9001001F006F990
:10135000012801D00020EDE70398EBE72DE9F041EB
:10136000184C0F46054666692068001D00F00EFC0B
:1013700038B9206890F82C1001208840A169814379
:10138000A161681C07D137B12168BDE8F0410E4862
:10139000091D00F04BBC20683544B542456021680A
:1013A00005D2A068BDE8F041091D00F027BC6068C7
:1013B000091D00F023FC206B854200D22563BDE8A7
:1013C000F081000014000020CC0800202DE9F0413D
:1013D000054600F037FC2E4C2069401C2061206837
:1013E0002C4F10B1E06940B32DE025602069012841
:1013F00029D1002606EB860007EB800000F0F0FB09
:10140000761C072EF6D323488C3000F0E9FB2148E8
:10141000A03000F0E5FB1F48B43000F0E1FB1D48B0
:10142000C83000F0DDFB1B48DC3000F0D9FB194868
:101430008C3060601430A06005E02068E96AC06A02
:10144000884200D82560E06A401CE062E96A012019
:10145000A26988401043A06101EB810007EB800086
:10146000291D00F0E3FB00F00DFCE06900280CD022
:101470002068E96AC06A884207D207494FF0805065
:101480000860BFF34F8FBFF36F8FBDE8F08100009E
:1014900014000020F007002004ED00E038B500F053
:1014A000D1FB104CA068C8B90F4800F099FB0E485A
:1014B000143000F095FB0C482060143060600A4B3B
:1014C00000202833009003F148020C210A2000F08C
:1014D000E9FDA06010B105A100F052FCBDE8384064
:1014E00000F0D0BB50000020E0080020546D725185
:1014F0000000000030B4026C0B46002A0BD0C1681B
:101500001144C1604468A14201D30168C16030BC8C
:101510001846FEF780BF30BC70472DE9F041856B5F
:10152000174604460026026C82B1C7B1E068FEF798
:1015300072FFE168206C091AE1602268914202D2D0
:101540006168081AE060022F16D017E02068A8B979
:10155000606801F0D3F80646002060600EE0A068E5
:10156000FEF759FF216CA0680844A06061688842BA
:1015700004D32068A06001E005B16D1E6D1CA56359
:101580003046BDE8F08110B5044690F8510058B1DE
:1015900001280CD002280FD0502080F31188BFF30F
:1015A0004F8FBFF36F8FFEE7206B00F07FFB20466D
:1015B000BDE8104000F07ABB10BD000010484FF4A9
:1015C0007051420706D0C01D0D4920F00700411A96
:1015D000C1F570510B4A00230144C2E900030839E8
:1015E000103A21F0070111604B600B600B1AC0E943
:1015F000001393604FF000405360D06070470000CC
:10160000C809002074000020144E154CA6F1C8072C
:101610004FF08058DFF84C9012E000BF00F012FB52
:10162000F068C568281D00F0B1FA2069401E2061ED
:10163000E068401EE06000F025FB2846FFF7A3FFAE
:10164000E0680028EAD138680128F9D9C9F8008093
:10165000BFF34F8FBFF36F8FF2E70000B808002091
:101660001400002004ED00E00346009829B1026058
:10167000C0E90F31012100F049BD0060F8E72DE914
:10168000F0479A46DDE9098481466FF00303206B39
:1016900003EB82021044089D20F00706700707D074
:1016A000502080F31188BFF34F8FBFF36F8FFEE799
:1016B00023180A5C83F834200A5C12B1401C1028FD
:1016C000F6D3002784F84370072D00D30625E56282
:1016D000C4E91157201D00F08EFA04F1180000F043
:1016E0008AFA2461C5F107006462A061E76484F8A6
:1016F000507052464946304600F032FA2060B8F148
:10170000000F01D0C8F80040BDE8F08730B511499E
:1017100000E011460A688242FBD34B685C188442A1
:1017200003D1406818444860084643681C18944236
:1017300009D1084C103C2468A24209D052681A44CE
:1017400042600A6812680260814200D0086030BDC1
:101750000460F9E77400002070B5002441600B4D6F
:101760000061914206D8D11A8269914206D2011DC8
:10177000686807E09A4203D2994201D3012403E04A
:10178000011D286800F03AFA204670BD5000002084
:1017900010B5044600F056FAA06B28B15FF00004C3
:1017A00000F070FA204610BD0124F9E730B587B08B
:1017B0002C4D4EE0049800284BDB069C606910B16C
:1017C000201D00F0E3F902A800F0B8F802460498E2
:1017D0000A283ED2DFE800F00505053D263705055D
:1017E0003D260598A169034601442046FFF7B4FF52
:1017F00000B3616A20468847E069012829D10020AA
:1018000000900598A169002342181946204601F06E
:101810008DF878B9502080F31188BFF34F8FBFF354
:101820006F8FFEE70598A06128B181181346204606
:10183000FFF792FF0DE0502080F31188BFF34F8F28
:10184000BFF36F8FFEE794F8280010B9204600F030
:101850002DFA002204A9A86800F0AAFD0028A9D149
:1018600007B030BD500000202DE9FC410F46054671
:1018700000F068FB01A800F061F80446019818B177
:1018800000F0C2FFBDE8FC81224EAFB17068006875
:10189000A8B30027291B3A46B06800F085FA00F08B
:1018A000B3FF0028EED11C494FF080500860BFF311
:1018B0004F8FBFF36F8FE5E7A542EBD800F0A4FF91
:1018C00030682746C068C468201D00F05FF9E069F1
:1018D000012810D1A0692B4641193A462046FFF74E
:1018E0003BFF40B100200346014600902A462046B7
:1018F00001F01CF820B1616A20468847C2E707E082
:10190000502080F31188BFF34F8FBFF36F8FFEE736
:101910000127BFE75000002004ED00E006484168C1
:10192000096829B14168C968C96849680163704795
:101930004FF0FF31FAE700001400002070B50546B3
:1019400000F072FE064E04463069844203D200F075
:1019500009F8012000E0002028602046346170BDB5
:1019600050000020F8B5194D1FE0C068C468066833
:10197000201D00F00BF9616A20468847E0690128C4
:1019800013D1A0693044B04206D924616060211DA2
:10199000286800F033F908E0002003460146009073
:1019A0003246204600F0C2FF38B12868016800299D
:1019B000DBD16968C5E90010F8BD502080F31188BB
:1019C000BFF34F8FBFF36F8FFEE700005000002082
:1019D00008484068401C4FF0500080F3118804D044
:1019E000BFF34F8FBFF36F8FFEE7BFF34F8FBFF390
:1019F0006F8FFEE77C000020074C2068016841B132
:101A0000C0680021D0F80000FFF72EFFFFF7CEFEE0
:101A1000F3E701210020F7E7500000202DE9F04115
:101A2000044600F00FF994F9455004F1240609E04A
:101A3000606A48B1304600F0ADFE08B100F004FA2B
:101A40006D1E6DB2002DF3DC4FF0FF3684F845605B
:101A500000F018F900F0F6F894F9445004F110077A
:101A600009E0206948B1384600F094FE08B100F062
:101A7000EBF96D1E6DB2002DF3DC84F84460BDE817
:101A8000F04100F0FFB800002DE9F04105460027C5
:101A900000F058FA314E306808B9FFF78FFDF06852
:101AA00005424BD1C5B3083568070ED005F00700D5
:101AB000C0F108000544680707D0502080F3118862
:101AC000BFF34F8FBFF36F8FFEE72DB37068854272
:101AD00034D82248103001460C6801E020460C46FC
:101AE0006168A94202D221680029F7D131688C428D
:101AF00024D007682168016060680837411B1029FD
:101B00000FD96019420708D0502080F31188BFF325
:101B10004F8FBFF36F8FFEE710E041606560FFF706
:101B2000F5FD61687068401A7060B268904200D23A
:101B3000B060F06801430020C4E9000100F064FED9
:101B4000780707D0502080F31188BFF34F8FBFF381
:101B50006F8FFEE73846BDE8F0810000640000208A
:101B600010B5031F4FF080741C601B1F21F0010192
:101B70001960191F044B0B6014390A60091F6FF0BC
:101B8000020244380A6010BDD1190008D0E90132C0
:101B900001699A60D0E901235A604A68824201D102
:101BA00082684A60002202610868401E0860086876
:101BB00070470000034B036003F15400086080206D
:101BC0001060704788000020044B036003F154004C
:101BD00008604FF48070106070470000DC02002045
:101BE00000F108014FF0FF32C0E90112C16001614C
:101BF00000210160704700210161704730B50B681A
:101C00005A1C02D000F1080202E0026904E02246F8
:101C1000546825689D42FAD953684B6099608A6080
:101C2000516008610168491C016030BD42684A602A
:101C300093688B6093685960916008610168491CE2
:101C400001607047502080F31188BFF34F8FBFF3BE
:101C50006F8F0A494868401C486001280CD1084829
:101C6000006810F0FF0F07D0502080F31188BFF3F9
:101C70004F8FBFF36F8FFEE7704700007C0000209E
:101C800004ED00E00849486828B1401E486001D1D1
:101C900080F311887047502080F31188BFF34F8F75
:101CA000BFF36F8FFEE700007C00002070B50028B6
:101CB00027D0144DA0F108046168E868014207D1FB
:101CC000502080F31188BFF34F8FBFF36F8FFEE773
:101CD00022683AB1502080F31188BFF34F8FBFF3D1
:101CE0006F8FFEE78143616000F02CF960686968DE
:101CF000084468602046FFF709FDBDE8704000F029
:101D000083BD70BD640000204FF0E0200021016120
:101D1000816105494FF47A720968B1FBF2F1491EFD
:101D200041610721016170471000002010B5FEF7E6
:101D3000D7FA114910280ED300F1E02090F8F003F3
:101D40000A78904207D2502080F31188BFF34F8F5A
:101D5000BFF36F8FFEE709480068896800F4E06010
:101D6000884207D9502080F31188BFF34F8FBFF30B
:101D70006F8FFEE710BD00007C0000200CED00E03E
:101D800010B5084B002200BF53F832401CB1521C62
:101D9000082AF9D310BD43F8321003EBC2014860A2
:101DA00010BD0000B007002070B515460E46044671
:101DB000FFF748FF94F944100020491C01D184F832
:101DC000440094F94510491C01D184F84500FFF7FF
:101DD00059FFA06B28B92A46314604F1240000F0CF
:101DE00051F82046BDE87040FFF718BE10B502005C
:101DF00014D00F48806B38B1502080F31188BFF3A6
:101E00004F8FBFF36F8FFEE700F09CF80021104664
:101E1000FFF7A4FA00F0F8FC002807D105494FF0BD
:101E200080500860BFF34F8FBFF36F8F10BD00006D
:101E30001400002004ED00E002498A6A026049694A
:101E4000416070471400002001490120486270473A
:101E50001400002010B50C4650B10949096818312A
:101E6000FFF7CCFE2046BDE810400121FFF776BA0F
:101E7000502080F31188BFF34F8FBFF36F8FFEE7C1
:101E80001400002070B514460D4668B10A4909686F
:101E90001831FFF7CBFE0CB14FF0FF352146284635
:101EA000BDE87040FFF75ABA502080F31188BFF3A5
:101EB0004F8FBFF36F8FFEE71400002030B587B05F
:101EC0000024039405AA04A903A80494FFF772FE52
:101ED000DDE903010094CDE90110002315A11748A5
:101EE000059A00F068FB164D002868631FD000F0CB
:101EF000EDFC012809D0401C19D1502080F3118835
:101F0000BFF34F8FBFF36F8FFEE7502080F3118830
:101F1000BFF34F8FBFF36F8F4FF0FF302863012067
:101F2000E8616C6107B0BDE8304000F041B807B02F
:101F300030BD000049444C4500000000091600086F
:101F4000140000200248816B491C81637047000027
:101F5000140000201448816B11B1012141627047C7
:101F6000002141628169B1FA81F1C1F11F0101EBE8
:101F700081020E4951F822306BB101EB820101F16F
:101F800008034A6852684A609A4201D152684A601E
:101F9000D16801607047502080F31188BFF34F8FE4
:101FA000BFF36F8FFEE7000014000020F007002051
:101FB0001CB537480168374A914207D1502080F359
:101FC0001188BFF34F8FBFF36F8FFEE70068314971
:101FD000491E884207D1502080F31188BFF34F8FEC
:101FE000BFF36F8FFEE72C4908780190FF2008703F
:101FF00008788DF800009DF800009DF8002000F0A2
:10200000F000904207D0502080F31188BFF34F8F2B
:10201000BFF36F8FFEE79DF80000204B00F05000EB
:1020200018700720986005E09DF8002052008DF898
:102030000020401E9DF800201206F5D49860032869
:1020400007D0502080F31188BFF34F8FBFF36F8FFD
:10205000FEE74FF440709860019808700C482030FB
:10206000016841F470010160016841F07041016054
:10207000FFF74AFE00205860FEF7FAF808480168AA
:1020800041F040410160FEF7DFF800201CBD000078
:1020900000ED00E071C20F4100E400E07C00002090
:1020A00034EF00E038B5049D18B153B1CAB181B125
:1020B00020E0502080F31188BFF34F8FBFF36F8F64
:1020C000FEE7502080F31188BFF34F8FBFF36F8F6F
:1020D000FEE7502080F31188BFF34F8FBFF36F8F5F
:1020E000FEE739B1502080F31188BFF34F8FBFF363
:1020F0006F8FFEE748241C46012384F846302B46A8
:102100000094FFF7B1FA204638BD000070B50D46C7
:10211000040025D0FFF796FDD4E90F20216802FBCB
:10212000001161600021A1632168A1600A46D4E921
:102130000F01401E00FB0121E16021464FF0FF30FE
:1021400001F8440F487004F110008DB1FFF748FD0D
:1021500004F12400FFF744FDFFF794FD012070BD5A
:10216000502080F31188BFF34F8FBFF36F8FFEE7CE
:1021700021690029F0D000F00DFB0028ECD00449C3
:102180004FF080500860BFF34F8FBFF36F8FE3E7CE
:1021900004ED00E02DE9FF4782B01D468A464FF06E
:1021A0000008040003D0BAF1000F08D011E050205D
:1021B00080F31188BFF34F8FBFF36F8FFEE7206C62
:1021C00038B1502080F31188BFF34F8FBFF36F8F6A
:1021D000FEE7022D0AD1E06B012807D0502080F3E2
:1021E0001188BFF34F8FBFF36F8FFEE700F00EFA39
:1021F0003F4F4FF000094FF0805648B9049838B16E
:10220000502080F31188BFF34F8FBFF36F8FFEE72D
:10221000FFF718FDA06BE16B884207D3022D05D0B4
:102220000498D0B1B8F1000F1AD01EE02A465146EA
:102230002046FFF772F9616A19B104F1240000F039
:10224000A9FA20B13E60BFF34F8FBFF36F8FFFF746
:1022500019FD012006B0BDE8F087FFF713FD22E06D
:102260006846FFF7E9FD4FF00108FFF70BFDFFF7A8
:1022700069FEFFF7E7FC94F94400401C01D184F8A3
:10228000449094F94500401C01D184F84590FFF733
:10229000F9FC04A9684600F027F930B12046FFF7A1
:1022A000BDFB00F0B1FA0020D4E7FFF7CBFCA06B38
:1022B000E16B884213D1FFF7E5FC04F110000499AB
:1022C000FFF7C8FD2046FFF7A9FB00F09DFA0028A4
:1022D0009ED13E60BFF34F8FBFF36F8F98E7FFF73C
:1022E000D1FC2046FFF79AFB00F08EFA90E7000041
:1022F00004ED00E02DE9F0471F46904689460400B2
:1023000003D0B9F1000F08D011E0502080F31188FC
:10231000BFF34F8FBFF36F8FFEE7206C38B15020B3
:1023200080F31188BFF34F8FBFF36F8FFEE7022F4B
:102330000AD1E06B012807D0502080F31188BFF349
:102340004F8FBFF36F8FFEE7FFF7F0FC5020EFF3E6
:10235000118680F31188BFF34F8FBFF36F8FA06B8F
:10236000E16B884206D3022F04D0002086F3118847
:10237000BDE8F08794F945503A4649462046FFF7B4
:10238000CCF8681C04D06D1C84F845500120EDE7A2
:10239000606A0028FAD004F1240000F0FBF900285C
:1023A000F4D0B8F1000FF1D00121C8F80010EDE72A
:1023B0002DE9F747002683B08A46040003D0BAF11E
:1023C000000F08D011E0502080F31188BFF34F8F29
:1023D000BFF36F8FFEE7206C38B1502080F3118877
:1023E000BFF34F8FBFF36F8FFEE700F00FF9DFF8F9
:1023F000F4804FF000094FF0805748B9059838B184
:10240000502080F31188BFF34F8FBFF36F8FFEE72B
:10241000FFF718FCA56BC5B151462046FFF76AF8D7
:102420006D1EA563206950B104F1100000F0B2F9EF
:1024300028B1C8F80070BFF34F8FBFF36F8FFFF75D
:1024400021FC012006B0BDE8F087059808B11EB157
:1024500006E0FFF717FC27E06846FFF7EDFC0126D2
:10246000FFF710FCFFF76EFDFFF7ECFB94F944005B
:10247000401C01D184F8449094F94500401C01D1DE
:1024800084F84590FFF7FEFB05A9684600F02CF89C
:10249000002820460AD0FFF7C1FA00F0B5F920461F
:1024A000FFF776F90028B3D00020CBE7FFF770F9EB
:1024B00090B104F124000599FFF7CCFC2046FFF70A
:1024C000ADFA00F0A1F90028A2D1C8F80070BFF35E
:1024D0004F8FBFF36F8F9BE72046FFF79FFA00F007
:1024E00093F995E704ED00E02DE9F0410C46050075
:1024F00011D0C4B1FFF7A6FB174B5A696E6820686C
:10250000911B471C17D02F689B6A9F4219D0964297
:1025100017D8012410E0502080F31188BFF34F8FAB
:10252000BFF36F8FFEE7502080F31188BFF34F8F0A
:10253000BFF36F8FFEE70024FFF7A4FB2046BDE842
:10254000F081884205D9401A20602846FFF774FCC4
:10255000F1E700202060DCE7140000202DE9FF5F98
:102560008346DDE90E87994616468A469000FFF7B6
:102570008BFA05001CD05420FFF786FA040014D013
:102580000020256384F85100CDE90240CDE90087A1
:102590004B46324651465846FFF771F82046FEF743
:1025A00015FF012004B0BDE8F09F2846FFF77EFB31
:1025B0004FF0FF30F6E7F0B585B0DDE90B640A9D1A
:1025C000A6B1DCB1542700972663022684F8516037
:1025D000002604AFCDE90246CDE90057FFF74FF8DA
:1025E0002046FEF7F3FE049805B0F0BD502080F3BE
:1025F0001188BFF34F8FBFF36F8FFEE7502080F33A
:102600001188BFF34F8FBFF36F8FFEE70548C16995
:1026100019B1806B18B1002070470120704702206B
:102620007047000014000020014840697047000016
:10263000140000202DE9F0412E4C0027A06B40B182
:10264000206A401C2062606A00B101273846BDE85C
:10265000F0816669761C666113D16068006838B1E4
:10266000502080F31188BFF34F8FBFF36F8FFEE7C9
:102670006068A1686160A060A06A401CA062FFF76A
:102680004DF9206BDFF87080864209D360680068DE
:1026900080B16068C068C568686886420DD22063F2
:1026A0002068C06A00EB800158F821000128CAD9CF
:1026B0000127C8E74FF0FF30F1E7281DFFF766FA62
:1026C000A86A18B105F11800FFF760FAE86A01215D
:1026D000A26981401143A16100EB800108EB8100F8
:1026E000291DFFF7A3FAE86A2168C96A8842CDD399
:1026F0000127CBE714000020F007002070B504008C
:102700004FF0000140D0214D2868844207D050206E
:1027100080F31188BFF34F8FBFF36F8FFEE7A06C7C
:1027200038B1401EA064636CE26A9A422CD040B17A
:102730002AE0502080F31188BFF34F8FBFF36F8FD3
:10274000FEE7201DFFF722FA114A012150B9E06A85
:1027500000EB800352F8233023B9AB6901FA00F093
:102760008343AB61606CE062C0F10700A061E06A86
:10277000AB6981401943A96100EB800002EB800046
:10278000211DFFF753FA0121084670BD14000020F7
:10279000F00700202DE9F041C068C468ACB104F135
:1027A00018000746FFF7F2F9154DA86B0126A0B1F6
:1027B00039461448FFF73AFAE06A2968C96A88423C
:1027C0001CD901206E62BDE8F081502080F3118891
:1027D000BFF34F8FBFF36F8FFEE7201DFFF7D6F9D2
:1027E000E16AAA6906FA01F01043A86101EB8100D1
:1027F0000449B43901EB8000211DDBE70020E2E74A
:1028000014000020A40800202DE9F0472C4D0024DE
:102810002746A86B38B1FFF715FAA86B401EA863CE
:10282000A86B40B146E0502080F31188BFF34F8F72
:10283000BFF36F8FFEE72969224E0120D1B3A6F1C5
:10284000B40980463068E8B1F068C46804F1180043
:10285000FFF79CF9201DFFF799F9E06AAA6908FAC9
:1028600000F11143A96100EB800109EB8100211DFA
:10287000FFF7DCF9E06A2968C96A8842E2D3C5F843
:102880002480DFE70CB1FFF749F82C6A44B14646D3
:10289000FFF7D0FE00B16E62641EF9D100202862FD
:1028A000686A38B10849012738070860BFF34F8FBD
:1028B000BFF36F8FFFF7E6F93846BDE8F0870000F9
:1028C00014000020A408002004ED00E010B586B03C
:1028D000FEF7E4FD114CA068B8B10020039004900D
:1028E00005AA04A903A8FFF76FF9DDE90321022077
:1028F0008DE8070000230AA10B48059AFFF75BFE4D
:10290000E06010B106B0012010BD502080F31188A6
:10291000BFF34F8FBFF36F8FFEE700005000002022
:10292000546D722053766300F9190008FEB51E46F7
:1029300013460200089D4FF0000014D0124CA76807
:10294000002F0FD0CDE900130292062915DAFFF708
:102950005DFE02284FF000030DD000226946A068FA
:10296000FFF718FCFEBD502080F31188BFF34F8F96
:10297000BFF36F8FFEE72A46F0E700233246694631
:102980003846FFF7B7FCFEBD500000204FF0407006
:10299000E1EE100A70470000CC290008C9100008B9
:1029A00000000000000000008000000000000000A7
:1029B000000000000000000000000000010203040D
:1029C000060708090000000001020304646566614F
:1029D000756C745461736B00F829000800000020C6
:1029E00088000000C4010008802A00088800002038
:1029F000A05B0000E00100080000000001000000F2
:102A000010000000000000000024F400000000009E
:102A100000000000000000000000000000000000B6
:102A200000000000000000000000000000000000A6
:102A30000000000000000000000000000000000096
:102A40000000000000000000000000000000000086
:102A50000000000000000000000000000000000076
:102A60000000000000000000000000000000000066
:102A70000000000000000000AAAAAAAA00000000AE
:040000050800018965
:00000001FF
